:020000040800F2
:100000000050002079230008E1020008ED020008FA
:10001000F3020008F9020008FF02000800000000D7
:1000200000000000000000000000000005030008C0
:1000300011030008000000001D0300082903000848
:10004000C1230008C1230008C1230008C123000800
:10005000C1230008C1230008C1230008C1230008F0
:10006000C1230008C1230008C1230008C1230008E0
:10007000C1230008C1230008C1230008C1230008D0
:10008000C1230008C1230008C1230008C1230008C0
:10009000C1230008C1230008C1230008C1230008B0
:1000A000C1230008C1230008C1230008C1230008A0
:1000B000C1230008C1230008C1230008C123000890
:1000C000C1230008C1230008C1230008C123000880
:1000D000C123000835030008C1230008C12300081C
:1000E000C1230008C1230008C1230008000000004C
:1000F0000000000000000000000000000000000000
:0C01000000000000000000005FF808F1A3
:10010C0010B5054C237833B9044B13B10448AFF345
:10011C0000800123237010BD4C0000200000000063
:10012C003C24000808B5034B1BB103490348AFF34B
:10013C00008008BD00000000500000203C24000896
:10014C00034613F8012B002AFBD1181A013870470B
:10015C0080B586B000AF07F1080300221A605A6020
:10016C009A60DA60184A184B9B6943F0100393614C
:10017C00154B9B6903F010037B607B68124A124B92
:10018C009B6943F0040393610F4B9B6903F00403D9
:10019C003B603B6800224FF400510C4800F0C4FC5B
:1001AC004FF40053BB601123FB6000233B6102231F
:1001BC007B6107F108031946044800F05BFB00BFA4
:1001CC001837BD4680BD00BF001002400010014032
:1001DC0080B500AF00F064F900F009F8FFF7B8FF44
:1001EC0000F0E0F802F00AF802F01AF8FCE780B52B
:1001FC0090B000AF07F1180328220021184602F036
:10020C00FFF83B1D00221A605A609A60DA601A618E
:10021C000223BB610123BB621023FB6200237B63BF
:10022C0007F11803184600F097FC0346002B01D089
:10023C0000F018F80F237B600023BB600023FB60E9
:10024C0000233B6100237B613B1D0021184600F01D
:10025C0003FF0346002B01D000F004F800BF403729
:10026C00BD4680BD80B400AF00BFBD4680BC7047AA
:10027C0080B485B000AF154A144B9B6943F0010361
:10028C009361124B9B6903F00103BB60BB680F4A7F
:10029C000E4BDB6943F08053D3610C4BDB6903F0ED
:1002AC0080537B607B680A4B5B68FB60FB6823F0C8
:1002BC00E063FB60FB6843F00073FB60044AFB687F
:1002CC00536000BF1437BD4680BC7047001002401D
:1002DC000000014080B400AF00BFBD4680BC704739
:1002EC0080B400AFFEE780B400AFFEE780B400AF8F
:1002FC00FEE780B400AFFEE780B400AF00BFBD46A0
:10030C0080BC704780B400AF00BFBD4680BC704756
:10031C0080B400AF00BFBD4680BC704780B500AF55
:10032C0000F004F900BF80BD80B500AF024801F0B9
:10033C0015F900BF80BD00BFE400002080B400AF01
:10034C00154A154B1B6843F0010313601249124BFD
:10035C005A68124B13404B600F4A0F4B1B6823F02B
:10036C00847323F4803313600B4A0B4B1B6823F408
:10037C0080231360084A084B5B6823F4FE03536028
:10038C00054B4FF41F029A60054B4FF000629A60C8
:10039C0000BFBD4680BC7047001002400000FFF853
:1003AC0000ED00E080B500AF114B124A1A60104B03
:1003BC004FF4E1325A600E4B00229A600C4B002233
:1003CC00DA600B4B00221A61094B0C225A61084B64
:1003DC0000229A61064B0022DA61054800F0D8FF32
:1003EC000346002B01D0FFF73DFF00BF80BD00BFCF
:1003FC00E40000200038014080B588B000AF786080
:10040C0007F1100300221A605A609A60DA607B6868
:10041C001B68204A934239D11F4A1F4B9B6943F4F6
:10042C00804393611C4B9B6903F48043FB60FB6826
:10043C00194A194B9B6943F004039361164B9B6952
:10044C0003F00403BB60BB684FF400733B610223F1
:10045C007B610323FB6107F1100319460F4800F081
:10046C0009FA4FF480633B6100237B610023BB617D
:10047C0007F110031946094800F0FCF9002200218D
:10048C00252000F044F9252000F05DF900BF20374D
:10049C00BD4680BD003801400010024000080140FC
:1004AC0080B500AF084A084B1B6843F0100313607B
:1004BC00032000F021F9002000F008F8FFF7D8FE27
:1004CC000023184680BD00BF0020024080B582B0DA
:1004DC0000AF7860124B1A68124B1B7819464FF418
:1004EC007A73B3FBF1F3B2FBF3F3184600F039F96E
:1004FC000346002B01D001230EE07B680F2B0AD89A
:10050C00002279684FF0FF3000F001F9064A7B6851
:10051C001360002300E0012318460837BD4680BD58
:10052C0000000020080000200400002080B400AF70
:10053C00054B1B781A46054B1B681344034A136082
:10054C0000BFBD4680BC704708000020240100207D
:10055C0080B400AF024B1B681846BD4680BC704788
:10056C002401002080B485B000AF78607B6803F074
:10057C000703FB600C4BDB68BB60BA684FF6FF03EC
:10058C001340BB60FB681A02BB68134343F0BF63A4
:10059C0043F40033BB60044ABB68D36000BF14371C
:1005AC00BD4680BC704700BF00ED00E080B400AFDA
:1005BC00044BDB681B0A03F007031846BD4680BCDE
:1005CC00704700BF00ED00E080B483B000AF03467D
:1005DC00FB7197F90730002B0BDB084997F90730B3
:1005EC005B09FA7902F01F02012000FA02F241F8CD
:1005FC00232000BF0C37BD4680BC704700E100E0F3
:10060C0080B483B000AF03463960FB7197F90730B3
:10061C00002B0ADB0D4997F907303A68D2B2120168
:10062C00D2B20B4483F800230AE00949FB7903F0AA
:10063C000F03043B3A68D2B21201D2B20B441A76C1
:10064C0000BF0C37BD4680BC704700BF00E100E026
:10065C0000ED00E080B489B000AFF860B9607A605A
:10066C00FB6803F00703FB61FB69C3F10703042B71
:10067C0028BF0423BB61FB690433062B02D9FB6939
:10068C00033B00E000237B610122BB6902FA03F308
:10069C005A1EBB681A407B699A4001217B6901FA9A
:1006AC0003F3591E7B680B40134318462437BD4691
:1006BC0080BC704780B582B000AF78607B68013B2E
:1006CC00B3F1807F01D301230FE00A4A7B68013B21
:1006DC0053600F214FF0FF30FFF792FF054B0022C4
:1006EC009A60044B07221A60002318460837BD464F
:1006FC0080BD00BF10E000E080B582B000AF786034
:10070C007868FFF72FFF00BF0837BD4680BD80B566
:10071C0086B000AF0346B9607A60FB7300237B613F
:10072C00FFF744FF78617A68B9687869FFF792FF40
:10073C00024697F90F3011461846FFF761FF00BFCC
:10074C001837BD4680BD80B582B000AF0346FB7143
:10075C0097F907301846FFF737FF00BF0837BD463B
:10076C0080BD80B582B000AF78607868FFF7A2FFDB
:10077C00034618460837BD4680BD000080B584B0DE
:10078C0000AF78600023FB737B6893F82130022B59
:10079C0005D07B6804229A630123FB7357E07B68C6
:1007AC001B687A681268126822F00E021A607B6865
:1007BC001B687A681268126822F001021A60264AD5
:1007CC007B681B681946254B99422ED07B681B68A9
:1007DC001946234B994226D07B681B681946214B3E
:1007EC0099421DD07B681B6819461F4B994214D047
:1007FC007B681B6819461D4B99420BD07B681B68A4
:10080C0019461B4B994202D14FF480130EE04FF066
:10081C0080730BE04FF4803308E04FF4805305E015
:10082C004FF4807302E0102300E0012353607B68D7
:10083C00012283F821207B68002283F820207B682A
:10084C005B6B002B03D07B685B6B78689847FB7BFA
:10085C0018461037BD4680BD00000240080002401B
:10086C001C0002403000024044000240580002408C
:10087C006C00024080B48BB000AF7860396000230C
:10088C007B6200233B6227E101227B6A02FA03F3BD
:10089C00FB613B681A68FB691340BB61BA69FB6971
:1008AC009A4240F016813B685B68122B34D0122BB5
:1008BC000DD8022B2BD0022B04D8002B31D0012BBE
:1008CC001CD048E0032B43D0112B1BD043E0894AAA
:1008DC00934226D0874A934206D8874A934220D027
:1008EC00864A93421DD036E0854A934219D0854AF8
:1008FC00934216D0844A934213D02CE03B68DB68B9
:10090C003B6228E03B68DB6804333B6223E03B68D6
:10091C00DB6808333B621EE03B68DB680C333B62F0
:10092C0019E03B689B68002B02D104233B6212E068
:10093C003B689B68012B05D108233B627B68FA69F5
:10094C001A6108E008233B627B68FA695A6102E08D
:10095C0000233B6200BFBB69FF2B01D87B6801E021
:10096C007B6804337B61BB69FF2B02D87B6A9B00DD
:10097C0002E07B6A083B9B003B617B691A680F2194
:10098C003B6901FA03F3DB431A40396A3B6901FA0C
:10099C0003F31A437B691A603B685B6803F080536E
:1009AC00002B00F09680594A584B9B6943F0010389
:1009BC009361564B9B6903F00103BB60BB68544ABF
:1009CC007B6A9B08023352F82330FB607B6A03F08E
:1009DC0003039B000F2202FA03F3DB43FA68134074
:1009EC00FB607B684B4A934213D07B684A4A934224
:1009FC000DD07B68494A934207D07B68484A9342A2
:100A0C0001D1032306E0042304E0022302E00123C6
:100A1C0000E000237A6A02F0030292009340FA6825
:100A2C001343FB603A497B6A9B080233FA6841F82E
:100A3C0023203B685B6803F48033002B06D03949D4
:100A4C00384B1A68BB6913430B6006E03549354BCC
:100A5C001A68BB69DB4313400B603B685B6803F4AB
:100A6C000033002B06D02F492E4B5A68BB69134319
:100A7C004B6006E02B492B4B5A68BB69DB43134098
:100A8C004B603B685B6803F48013002B06D0254950
:100A9C00244B9A68BB6913438B6006E02149214BB8
:100AAC009A68BB69DB4313408B603B685B6803F45B
:100ABC000013002B06D01B491A4BDA68BB69134391
:100ACC00CB6006E01749174BDA68BB69DB43134070
:100ADC00CB607B6A01337B623B681A687B6A22FAC3
:100AEC0003F3002B7FF4D0AE00BF2C37BD4680BC87
:100AFC00704700BF00002110000011100000121000
:100B0C0000003110000032100000221000100240D2
:100B1C000000014000080140000C014000100140A1
:100B2C00001401400004014080B483B000AF786031
:100B3C000B467B8013467B707B78002B03D07A8826
:100B4C007B681A6103E07B881A047B681A6100BF1A
:100B5C000C37BD4680BC704780B586B000AF78605E
:100B6C007B68002B01D101236CE27B681B6803F0CE
:100B7C000103002B00F08780924B5B6803F00C03A1
:100B8C00042B0CD08F4B5B6803F00C03082B12D199
:100B9C008C4B5B6803F48033B3F5803F0BD1894BEE
:100BAC001B6803F40033002B6CD07B685B68002B54
:100BBC0068D1012346E27B685B68B3F5803F06D1C0
:100BCC00804A804B1B6843F4803313602EE07B68B3
:100BDC005B68002B0CD17B4A7A4B1B6823F4803367
:100BEC001360784A774B1B6823F4802313601DE055
:100BFC007B685B68B3F5A02F0CD1724A714B1B68F4
:100C0C0043F4802313606F4A6E4B1B6843F48033AC
:100C1C0013600BE06B4A6B4B1B6823F4803313603F
:100C2C00684A684B1B6823F4802313607B685B68FD
:100C3C00002B13D0FFF78CFC386108E0FFF788FC21
:100C4C0002463B69D31A642B01D90323FAE15D4BAD
:100C5C001B6803F40033002BF0D014E0FFF778FC92
:100C6C00386108E0FFF774FC02463B69D31A642B29
:100C7C0001D90323E6E1534B1B6803F40033002B2B
:100C8C00F0D100E000BF7B681B6803F00203002B6F
:100C9C0063D04C4B5B6803F00C03002B0BD0494B1F
:100CAC005B6803F00C03082B1CD1464B5B6803F408
:100CBC008033002B16D1434B1B6803F00203002B2F
:100CCC0005D07B681B69012B01D00123BAE13D499A
:100CDC003C4B1B6823F0F8027B685B69DB00134319
:100CEC000B603AE07B681B69002B20D0364B01224D
:100CFC001A60FFF72DFC386108E0FFF729FC02466B
:100D0C003B69D31A022B01D903239BE12D4B1B68A2
:100D1C0003F00203002BF0D02A492A4B1B6823F066
:100D2C00F8027B685B69DB0013430B6015E0264B14
:100D3C0000221A60FFF70CFC386108E0FFF708FC92
:100D4C0002463B69D31A022B01D903237AE11D4BCE
:100D5C001B6803F00203002BF0D17B681B6803F0C7
:100D6C000803002B3AD07B689B69002B19D0174BDA
:100D7C0001221A60FFF7ECFB386108E0FFF7E8FB93
:100D8C0002463B69D31A022B01D903235AE10D4BBE
:100D9C005B6A03F00203002BF0D0012000F0DAFABA
:100DAC001CE00A4B00221A60FFF7D2FB38610FE0FF
:100DBC00FFF7CEFB02463B69D31A022B08D903235B
:100DCC0040E100BF00100240000042428004424259
:100DDC009E4B5B6A03F00203002BE9D17B681B6816
:100DEC0003F00403002B00F0A6800023FB75974B47
:100DFC00DB6903F08053002B0DD1944A934BDB69D4
:100E0C0043F08053D361914BDB6903F08053BB609B
:100E1C00BB680123FB758E4B1B6803F48073002B9E
:100E2C0018D18B4A8A4B1B6843F480731360FFF70D
:100E3C008FFB386108E0FFF78BFB02463B69D31A46
:100E4C00642B01D90323FDE0814B1B6803F48073F1
:100E5C00002BF0D07B68DB68012B06D17B4A7B4BE7
:100E6C001B6A43F0010313622DE07B68DB68002BE7
:100E7C000CD1764A754B1B6A23F001031362734A3B
:100E8C00724B1B6A23F0040313621CE07B68DB6863
:100E9C00052B0CD16D4A6D4B1B6A43F00403136296
:100EAC006A4A6A4B1B6A43F0010313620BE0674A00
:100EBC00664B1B6A23F001031362644A634B1B6A83
:100ECC0023F0040313627B68DB68002B15D0FFF75B
:100EDC003FFB38610AE0FFF73BFB02463B69D31A44
:100EEC0041F28832934201D90323ABE0574B1B6A82
:100EFC0003F00203002BEED014E0FFF729FB38615E
:100F0C000AE0FFF725FB02463B69D31A41F288320F
:100F1C00934201D9032395E04C4B1B6A03F0020367
:100F2C00002BEED1FB7D012B05D1484A474BDB69E9
:100F3C0023F08053D3617B68DB69002B00F0818048
:100F4C00424B5B6803F00C03082B61D07B68DB69B8
:100F5C00022B46D13F4B00221A60FFF7F9FA386199
:100F6C0008E0FFF7F5FA02463B69D31A022B01D9C8
:100F7C00032367E0354B1B6803F00073002BF0D1A3
:100F8C007B681B6AB3F5803F08D130492F4B5B68F7
:100F9C0023F400327B689B6813434B602B482B4B2C
:100FAC005B6823F474127B68196A7B685B6A0B4379
:100FBC0013434360274B01221A60FFF7C9FA3861CB
:100FCC0008E0FFF7C5FA02463B69D31A022B01D998
:100FDC00032337E01D4B1B6803F00073002BF0D08C
:100FEC002FE01C4B00221A60FFF7B2FA386108E0C0
:100FFC00FFF7AEFA02463B69D31A022B01D9032341
:10100C0020E0124B1B6803F00073002BF0D118E0AA
:10101C007B68DB69012B01D1012313E00B4B5B686F
:10102C00FB60FB6803F480327B681B6A9A4206D132
:10103C00FB6803F470127B685B6A9A4201D001234F
:10104C0000E0002318461837BD4680BD0010024052
:10105C00007000406000424280B584B000AF786000
:10106C0039607B68002B01D10123D0E06A4B1B68EF
:10107C0003F007023B689A4210D26749664B1B6823
:10108C0023F007023B6813430B60634B1B6803F0B0
:10109C0007023B689A4201D00123B8E07B681B68C9
:1010AC0003F00203002B20D07B681B6803F00403C1
:1010BC00002B05D0594A594B5B6843F4E0635360ED
:1010CC007B681B6803F00803002B05D0534A534B75
:1010DC005B6843F4605353605049504B5B6823F09A
:1010EC00F0027B689B6813434B607B681B6803F0C2
:1010FC000103002B40D07B685B68012B07D1474B69
:10110C001B6803F40033002B15D101237FE07B68AF
:10111C005B68022B07D1414B1B6803F00073002B5B
:10112C0009D1012373E03D4B1B6803F00203002B34
:10113C0001D101236BE03949384B5B6823F0030282
:10114C007B685B6813434B60FFF702FAF8600AE0B8
:10115C00FFF7FEF90246FB68D31A41F2883293423C
:10116C0001D9032353E02D4B5B6803F00C027B6821
:10117C005B689B009A42EBD1274B1B6803F007027C
:10118C003B689A4210D92449234B1B6823F0070271
:10119C003B6813430B60204B1B6803F007023B6852
:1011AC009A4201D0012332E07B681B6803F00403F0
:1011BC00002B08D01949194B5B6823F4E0627B685B
:1011CC00DB6813434B607B681B6803F00803002B40
:1011DC0009D01249114B5B6823F460527B681B6980
:1011EC00DB0013434B6000F021F801460B4B5B68AE
:1011FC001B0903F00F030A4AD35C21FA03F3094AD3
:10120C001360094B1B681846FFF760F9002318465A
:10121C001037BD4680BD00BF0020024000100240C8
:10122C00D8240008000000200400002090B48AB0EC
:10123C0000AF2A4B3C1D0FCB84E80F00284B1B88BA
:10124C003B800023FB610023BB6100237B620023F6
:10125C007B6100233B62234B5B68FB61FB6903F002
:10126C000C03042B02D0082B03D02DE01E4B3B6249
:10127C002DE0FB699B0C03F00F0307F128021344CC
:10128C0013F8243C7B61FB6903F48033002B13D0EF
:10129C00144B5B685B0C03F0010307F12802134449
:1012AC0013F8283CBB617B690F4A02FB03F2BB6954
:1012BC00B2FBF3F37B6204E07B690C4A02FB03F3A1
:1012CC007B627B6A3B6202E0074B3B6200BF3B6A7E
:1012DC0018462837BD4690BC704700BF5424000800
:1012EC00642400080010024000127A0000093D003E
:1012FC0080B400AF024B1B681846BD4680BC7047DB
:10130C000000002080B500AFFFF7F2FF0146054B4F
:10131C005B681B0A03F00703034AD35C21FA03F34F
:10132C00184680BD00100240E824000880B500AFCC
:10133C00FFF7DEFF0146054B5B68DB0A03F0070392
:10134C00034AD35C21FA03F3184680BD0010024017
:10135C00E824000880B485B000AF78600A4B1B68A5
:10136C000A4AA2FB03235B0A7A6802FB03F3FB60C5
:10137C0000BFFB685A1EFA60002BF9D100BF14376E
:10138C00BD4680BC704700BF00000020D34D6210EA
:10139C0080B582B000AF78607B68002B01D101234F
:1013AC003FE07B6893F83930DBB2002B06D17B68C9
:1013BC00002283F838207868FFF71EF87B68242217
:1013CC0083F839207B681B687A681268D26822F42B
:1013DC000052DA60786800F0E5FA7B681B687A687E
:1013EC001268126922F490421A617B681B687A6851
:1013FC001268526922F02A025A617B681B687A686B
:10140C001268D26842F40052DA607B680022DA6318
:10141C007B68202283F839207B68202283F83A20CD
:10142C00002318460837BD4680BD80B485B000AF98
:10143C00F860B9601346FB80FB6893F83930DBB277
:10144C00202B30D1BB68002B02D0FB88002B01D1A4
:10145C00012329E0FB6893F83830012B01D10223DA
:10146C0022E0FB68012283F83820FB68BA681A6214
:10147C00FB68FA889A84FB68FA88DA84FB68002295
:10148C00DA63FB68212283F83920FB68002283F899
:10149C003820FB681B68FA681268D26842F0800238
:1014AC00DA60002300E0022318461437BD4680BCE6
:1014BC00704780B485B000AFF860B9601346FB800C
:1014CC00FB6893F83A30DBB2202B40D1BB68002B81
:1014DC0002D0FB88002B01D1012339E0FB6893F883
:1014EC003830012B01D1022332E0FB68012283F852
:1014FC003820FB68BA689A62FB68FA889A85FB68A0
:10150C00FA88DA85FB680022DA63FB68222283F80A
:10151C003A20FB68002283F83820FB681B68FA68C5
:10152C001268D26842F48072DA60FB681B68FA6851
:10153C001268526942F001025A61FB681B68FA6832
:10154C001268D26842F02002DA60002300E0022325
:10155C0018461437BD4680BC7047000080B588B073
:10156C0000AF78607B681B681B68FB617B681B683D
:10157C00DB68BB617B681B685B697B6100233B613B
:10158C000023FB60FB6903F00F033B613B69002BFD
:10159C000DD1FB6903F02003002B08D0BB6903F0CD
:1015AC002003002B03D0786800F07AF9CCE03B697B
:1015BC00002B00F0AB807B6903F00103002B05D1FD
:1015CC00BB6903F49073002B00F0A080FB6903F05F
:1015DC000103002B0AD0BB6903F48073002B05D0E8
:1015EC007B68DB6B43F001027B68DA63FB6903F019
:1015FC000403002B0AD07B6903F00103002B05D0F8
:10160C007B68DB6B43F002027B68DA63FB6903F0F7
:10161C000203002B0AD07B6903F00103002B05D0D9
:10162C007B68DB6B43F004027B68DA63FB6903F0D5
:10163C000803002B0AD07B6903F00103002B05D0B3
:10164C007B68DB6B43F008027B68DA637B68DB6BDF
:10165C00002B78D0FB6903F02003002B07D0BB696B
:10166C0003F02003002B02D0786800F019F97B6896
:10167C001B685B6903F04003002B14BF012300239C
:10168C00DBB2FB607B68DB6B03F00803002B02D141
:10169C00FB68002B31D0786800F065F87B681B681C
:1016AC005B6903F04003002B23D07B681B687A68CE
:1016BC001268526922F040025A617B685B6B002B06
:1016CC0013D07B685B6B224A5A637B685B6B184652
:1016DC00FFF754F80346002B16D07B685B6B5B6BF3
:1016EC007A68526B104698470EE0786800F032F832
:1016FC000AE0786800F02EF806E0786800F02AF826
:10170C007B680022DA631EE000BF1CE0FB6903F07B
:10171C008003002B08D0BB6903F08003002B03D09F
:10172C00786800F051F80FE0FB6903F04003002BE0
:10173C000AD0BB6903F04003002B05D0786800F099
:10174C0097F800BF00E000BF2037BD4680BD00BF4A
:10175C00AD17000880B483B000AF786000BF0C37C1
:10176C00BD4680BC704780B483B000AF78607B68A6
:10177C001B687A681268D26822F49072DA607B680F
:10178C001B687A681268526922F001025A617B6800
:10179C00202283F83A2000BF0C37BD4680BC70472E
:1017AC0080B584B000AF78607B685B6AFB60FB68D7
:1017BC000022DA85FB680022DA84F868FFF7CAFF9A
:1017CC0000BF1037BD4680BD80B485B000AF7860D7
:1017DC007B6893F83930DBB2212B43D17B689B6853
:1017EC00B3F5805F19D17B681B6AFB607B681B6853
:1017FC00FA681288C2F308025A607B681B69002BD6
:10180C0005D17B681B6A9A1C7B681A620EE07B68A8
:10181C001B6A5A1C7B681A6208E07B681A687B6832
:10182C001B6A581C796808621B7853607B68DB8CD8
:10183C009BB2013B9BB27A681946D184002B0FD125
:10184C007B681B687A681268D26822F08002DA60C2
:10185C007B681B687A681268D26842F04002DA60D2
:10186C00002300E0022318461437BD4680BC7047A5
:10187C0080B582B000AF78607B681B687A681268AC
:10188C00D26822F04002DA607B68202283F839208B
:10189C00786800F035FC002318460837BD4680BD3B
:1018AC0080B584B000AF78607B6893F83A30DBB2D7
:1018BC00222B71D17B689B68B3F5805F23D17B6849
:1018CC009B6AFB607B681B69002B0ED17B681B68D5
:1018DC005B689BB2C3F308039AB2FB681A807B68FF
:1018EC009B6A9A1C7B689A6229E07B681B685B6820
:1018FC009BB2DBB29AB2FB681A807B689B6A5A1C5B
:10190C007B689A621BE07B681B69002B0AD17B68A1
:10191C009B6A591C7A6891627A6812685268D2B2D2
:10192C001A700CE07B689B6A591C7A6891627A6821
:10193C0012685268D2B202F07F02D2B21A707B687F
:10194C00DB8D9BB2013B9BB27A681946D185002B8B
:10195C0020D17B681B687A681268D26822F020025A
:10196C00DA607B681B687A681268D26822F480722D
:10197C00DA607B681B687A681268526922F001028F
:10198C005A617B68202283F83A20786800F004FCC6
:10199C00002302E0002300E0022318461037BD4666
:1019AC0080BD000090B585B000AF78607B681B6887
:1019BC007A681268126922F440517A68D2680A4334
:1019CC001A617B689A687B681B691A437B685B6940
:1019DC001343FB607B681A687B681B68DB6823F425
:1019EC00B05323F00C03F9680B43D3607B681B687E
:1019FC007A681268526922F440717A6892690A43D3
:101A0C005A617B681B68524A93424ED1FFF78EFC99
:101A1C00B8607B681968BA6813469B0013449A0037
:101A2C001A447B685B689B00B2FBF3F3494AA2FB48
:101A3C0003235B091801BA6813469B0013449A00F0
:101A4C001A447B685B689B00B2FBF3F2414BA3FB2F
:101A5C0002435B09642404FB03F3D31A1B013233E6
:101A6C003C4AA2FB03235B0903F0F0031844BA6859
:101A7C0013469B0013449A001A447B685B689B00D6
:101A8C00B2FBF3F2334BA3FB02435B09642404FB6C
:101A9C0003F3D31A1B0132332E4AA2FB03235B0937
:101AAC0003F00F0303448B604DE0FFF72BFCB86091
:101ABC007B681968BA6813469B0013449A001A4451
:101ACC007B685B689B00B2FBF3F3224AA2FB032307
:101ADC005B091801BA6813469B0013449A001A4418
:101AEC007B685B689B00B2FBF3F21A4BA3FB0243CF
:101AFC005B09642404FB03F3D31A1B013233154A2C
:101B0C00A2FB03235B0903F0F0031844BA681346E5
:101B1C009B0013449A001A447B685B689B00B2FBE1
:101B2C00F3F20C4BA3FB02435B09642404FB03F3A9
:101B3C00D31A1B013233074AA2FB03235B0903F0C0
:101B4C000F0303448B6000BF1437BD4690BD00BF2C
:101B5C00003801401F85EB5180B483B000AF786032
:101B6C00396000BF0C37BD4680BC704780B485B06F
:101B7C0000AF78600023FB607B681B685B42FB60F6
:101B8C007B68FA681A6000BF1437BD4680BC70478A
:101B9C0080B588B000AF786039600023FB770023F4
:101BAC00BB7700237B7700233B777B68002B09D125
:101BBC003B6830221A703B68013300221A700023F4
:101BCC007B7753E07B68002B08DA3B682D221A7078
:101BDC0001233B773B1D1846FFF7C8FF0023FB771B
:101BEC001FE0F87F7A68254B83FB02139910D317FB
:101BFC00C91A0B469B000B445B00D11ACBB2303395
:101C0C00DAB207F12003034403F8142C7B681B4A57
:101C1C0082FB03129210DB17D31A7B60FB7F01331C
:101C2C00FB777B68002BDCDCFB7F7B77FA7F3B7FD1
:101C3C001344FB77FB7F3A68134400221A7000238D
:101C4C00BB770FE0FB7F013BFB77FB7F3A681344CC
:101C5C00BA7F07F120010A4412F8142C1A70BB7FCA
:101C6C000133BB77BA7F7B7F9A42EBD37A7F3B7F82
:101C7C001344DBB218462037BD4680BD67666666E6
:101C8C0080B487B000AFF860B9607A600023FB8243
:101C9C00FB6800221A80FB6800225A80FB68BA6835
:101CAC005A607B689AB2FB681A810023FB8208E0B9
:101CBC00FB685A68FB8A134400221A70FB8A0133B2
:101CCC00FB82FA8A7B689A42F2D300BF1C37BD466E
:101CDC0080BC704780B584B000AF78600B46FB7059
:101CEC007B681B8801339BB21AB27B681B89013B52
:101CFC009BB21BB213401BB2FB817B685B88FA89D9
:101D0C009A420AD07B685B687A6812881344FA7826
:101D1C001A707B68FA891A8003E050210348FFF798
:101D2C001BFF00BF1037BD4680BD00BF68240008F4
:101D3C0080B485B000AF78600023FB737B685A8851
:101D4C007B681B889A4216D07B685B687A685288DD
:101D5C0013441B78FB737B685B8801339BB21AB20C
:101D6C007B681B89013B9BB21BB213401BB29AB21E
:101D7C007B685A8001E00023FB73FB7B1846143709
:101D8C00BD4680BC704780B483B000AF78607B6880
:101D9C001A887B685B88D31A9BB21AB27B681B8942
:101DAC00013B9BB21BB213401BB29BB218460C37C3
:101DBC00BD4680BC704780B483B000AF78607B6850
:101DCC005A887B681A8000BF0C37BD4680BC7047B0
:101DDC0080B582B000AF786039607B68002B03D18E
:101DEC00C2211048FFF7B8FE3B68002B03D1C3217A
:101DFC000C48FFF7B1FE7B6858687B689B684022F3
:101E0C001946FFF73DFF7B68D8687B681B69402249
:101E1C001946FFF735FF7B683A681A6000BF083730
:101E2C00BD4680BD9C24000880B584B000AF7860AE
:101E3C0039600023FB600BE01C4B1A687B68586808
:101E4C00FB68591CF96039680B441B78194690479C
:101E5C003A68FB6813441B78002BEDD17B689B7DA3
:101E6C00002B1FD1114B5B687A685268104698475B
:101E7C0003461A460E4B1A607B681B6801220C49FC
:101E8C001846FFF7D2FA03461A460A4B1A70094B4A
:101E9C001B78002B03D0E1210748FFF75DFE7B6820
:101EAC0001229A7500BF1037BD4680BDF024000892
:101EBC006C000020680000209C24000880B582B0D3
:101ECC0000AF7860396039687868FFF7ADFF044976
:101EDC007868FFF7A9FF00BF0837BD4680BD00BF7B
:101EEC00B824000880B586B000AFF860B9607A609D
:101EFC0000237B610BE01C4B1A68FB6858687B69FC
:101F0C00591C7961B9680B441B78194690477A695A
:101F1C007B689A42EFD3FB689B7D002B1FD1124B41
:101F2C005B68FA6852681046984703461A460F4B8E
:101F3C001A60FB681B6801220C491846FFF775FAFA
:101F4C0003461A460A4B1A70094B1B78002B03D018
:101F5C00FE210848FFF700FEFB6801229A7500BFBE
:101F6C001837BD4680BD00BFF0240008700000206B
:101F7C00680000209C24000880B584B000AF786015
:101F8C000023FB60064B9B687A68D2681046984722
:101F9C000346FB60FB689BB218461037BD4680BDFC
:101FAC00F024000880B582B000AF7860044BDB6889
:101FBC007A68D2681046984700BF0837BD4680BD86
:101FCC00F024000880B483B000AF78607B689B6914
:101FDC0018460C37BD4680BC704780B582B000AF48
:101FEC0078607B685B7D002B0AD17B6818687B6806
:101FFC00143301221946FFF75CFA7B6801225A75EB
:10200C0000BF0837BD4680BD90B587B000AFF86003
:10201C00B9601346FB710023FB750023BB750023CD
:10202C00FB7518E0124B9B68FA68D268104698470B
:10203C000346BB75BB7D002B12D0FB7DBA68D41850
:10204C000B4B5B68FA68D2681046984703462370BE
:10205C00FB7D0133FB75FA7DFB799A42E2D300E0FC
:10206C0000BFFB7D9BB218461C37BD4690BD00BF20
:10207C00F024000890B587B000AFF860B960114645
:10208C001A460B46FB711346BB710023FB750023EC
:10209C00BB750023FB7525E0184B9B68FA68D2686A
:1020AC00104698470346BB75BB7D002B1FD0FB7DAC
:1020BC00BA68D418114B5B68FA68D2681046984716
:1020CC0003462370FB7DBA6813441B78BA799A4295
:1020DC0005D1FB7DBA68134400221A7008E0FB7D21
:1020EC000133FB75FA7DFB799A42D5D300E000BF32
:1020FC00FB7D9BB218461C37BD4690BDF0240008F2
:10210C0080B584B000AF78601E4B1A687B689A4229
:10211C0001D11C4BFB60FB68002B04D14FF4AC715C
:10212C001948FFF719FD194B9B68FA68526810465D
:10213C0098470346002B1ED0144B5B68FA68526814
:10214C001046984703461A46114B1A60FB681B68E9
:10215C0001220F491846FFF768F903461A460D4B42
:10216C001A700C4B1B78002B08D04FF4B07106483A
:10217C00FFF7F2FC02E0FB6800229A7500BF1037F3
:10218C00BD4680BD0C0000209C240008F0240008F3
:10219C00740000206800002080B584B000AF786027
:1021AC00134B1A687B689A4201D1114BFB60FB6898
:1021BC00002B04D14FF4BD710E48FFF7CDFC0E4B34
:1021CC001B68FA68D068FA68127D11469847FEF7CA
:1021DC00BFF90246064B9A61FB681868FB6814331A
:1021EC0001221946FFF765F900BF1037BD4680BDC7
:1021FC000C0000209C240008F024000880B500AFDF
:10220C0004490548FFF7E4FD044BDB680248984796
:10221C0000BF80BDE40000200C000020280000203E
:10222C0080B500AF00F004F800F058F800BF80BD96
:10223C00B0B500AFFEF78CF902461F4B1B68D31AE2
:10224C00B3F57A7F35D91D4B1B6801331B4A1360DC
:10225C001B4A1C4B14461D460FCD0FC42B68236024
:10226C00164B1B6818491846FFF792FC1649144880
:10227C0000F0CEF81248FDF763FF03461A46104BE8
:10228C001344124A1188927819809A700C48FDF701
:10229C0057FF0346DAB20E4B1A700E4B1B680C4AF2
:1022AC00127807490C489847FEF752F90246024B40
:1022BC001A6000BFB0BD00BF780000207C00002079
:1022CC0080000020BC240008A0000020D0240008BE
:1022DC00AA000020280000200C00002090B583B03C
:1022EC0000AFFEF735F902461B4B1B68D31A0A2BBD
:1022FC002ED90023FB71194B9B691948984703464B
:10230C00FB71FB79002B1ED0FEF722F90446134B10
:10231C001B6A134898470346E31A052B13D90F4B36
:10232C005C690D2332220F490D48A0470346FB710F
:10233C000A4B1B68FA790B4909489847074B5B68AD
:10234C00094907489847FEF703F90246024B1A6001
:10235C0000BF0C37BD4690BDAC000020280000200B
:10236C000C000020B0000020D4240008002103E061
:10237C000B4B5B58435004310A480B4B42189A42A2
:10238C00F6D30A4A02E0002342F8043B084B9A4277
:10239C00F9D3FDF7D3FF00F00FF8FDF719FF7047E5
:1023AC0008250008000000204C0000204C000020F4
:1023BC00C0010020FEE7000070B500250C4E0D4C4E
:1023CC00A41BA410A54209D100F032F800250A4E36
:1023DC000A4CA41BA410A54205D170BD56F825309B
:1023EC0098470135EEE756F8253098470135F2E766
:1023FC000025000800250008002500080425000819
:10240C0003460244934200D1704703F8011BF9E7DD
:10241C00024610B513461C780132002CFAD1013B50
:10242C0011F8012B03F8012F002AF9D110BD00007F
:10243C00F8B500BFF8BC08BC9E467047F8B500BFA5
:08244C00F8BC08BC9E46704775
:1024540002030405060708090A0B0C0D0E0F1010E1
:10246400010200002E2E5C657874536F75726365EB
:102474005C73775F6D6F64756C65735C72696E67AE
:102484005F6275666665725C72696E675F627566C7
:102494006665722E630000002E2E5C736F75726386
:1024A400655C53657269616C5C53657269616C2E1D
:1024B400630000000A000000757054696D652069AE
:1024C4006E207365636F6E64733A20000A0D00001A
:1024D4000D0A0000000000000000000001020304D7
:1024E400060708090000000001020304E11C0008BB
:0C24F4003D1D0008931D0008C31D0008DA
:04250000310100089D
:042504000D010008BD
:102508000024F4001000000001000000000000009A
:102518003401002080010020280100204001002013
:102528000000000000000000F11E0008351E000831
:10253800C91E0008E71F00081520000881200008B0
:0C254800851F0008B11F0008D11F00080B
:040000050800237953
:00000001FF
