:020000040800F2
:1000000000500020690F00087D0200087F020008F0
:100010008102000883020008850200080000000039
:10002000000000000000000000000000870200083F
:1000300089020008000000008B0200088D02000801
:10004000B10F0008B10F0008B10F0008B10F000890
:10005000B10F0008B10F0008B10F0008B10F000880
:10006000B10F0008B10F0008B10F0008B10F000870
:10007000B10F0008B10F0008B10F0008B10F000860
:10008000B10F0008B10F0008B10F0008B10F000850
:10009000B10F0008B10F0008B10F0008B10F000840
:1000A000B10F0008B10F0008B10F0008B10F000830
:1000B000B10F0008B10F0008B10F0008B10F000820
:1000C000B10F0008B10F0008B10F0008B10F000810
:1000D000B10F000891020008B10F0008B10F00082D
:1000E000B10F0008B10F0008B10F000800000000B8
:1000F0000000000000000000000000000000000000
:0C01000000000000000000005FF808F1A3
:10010C0010B5054C237833B9044B13B10448AFF345
:10011C0000800123237010BD0C00002000000000A3
:10012C000C10000808B5034B1BB103490348AFF38F
:10013C00008008BD00000000100000200C1000081A
:10014C0010B586B01022002102A800F051FF144B0C
:10015C00144C9A69204642F010029A619A694FF445
:10016C00005102F010020092009A9A6942F00402C7
:10017C009A619B69002203F004030193019B00F038
:10018C00E9FA4FF4005302931123039300230493D1
:10019C00022302A92046059300F0FAF906B010BD1F
:1001AC00001002400010014000B591B0282200213F
:1001BC0006A800F01DFF1422002101A800F018FF72
:1001CC000223069301230A93102306A80B9300F035
:1001DC00CDFA00210F2301A8019302910391049100
:1001EC00059100F09DFC11B05DF804FB08B500F022
:1001FC00F9F8FFF7D9FFFFF7A3FF00F06FF8084CF1
:10020C00084D00F00DF92368C01AC828F9D900F080
:10021C0007F94FF400512060284600F0A0FAF0E7EF
:10022C002800002000100140704700000E4B82B0E7
:10023C009A6942F001029A619A6902F001020092F5
:10024C00009ADA6942F08052DA61DB69074A03F0FE
:10025C0080530193019B536823F0E06343F00073D8
:10026C00536002B0704700BF001002400000014014
:10027C007047FEE7FEE7FEE7FEE770477047704702
:10028C0000F0C2B8014800F0C1BD00BF2C00002036
:10029C000F4B1A6842F001021A6059680D4A0A4065
:1002AC005A601A6822F0847222F480321A601A683A
:1002BC0022F480221A605A6822F4FE025A604FF42B
:1002CC001F029A604FF00062034B9A60704700BFA8
:1002DC00001002400000FFF800ED00E008B54FF4FC
:1002EC00E13E0A480A4B0C2280E808400023426198
:1002FC008360C36003618361C36100F017FD18B1B3
:10030C00BDE80840FFF790BF08BD00BF2C000020DF
:10031C000038014010B5044686B01022002102A816
:10032C0000F066FE22681B4B9A4230D103F558430D
:10033C009A6902A942F480429A619A69164802F4B9
:10034C0080420092009A9A69002442F004029A6159
:10035C009B6903F004030193019B4FF40073029318
:10036C00022303930323059300F012F94FF48063E7
:10037C0002A9094802930394049400F009F925207A
:10038C002246214600F064F8252000F095F806B0CE
:10039C0010BD00BF003801400008014038B50E4BBD
:1003AC00054618784FF47A73B3FBF0F30B4A1068D8
:1003BC00B0FBF3F000F08EF8044658B90F2D09D8B5
:1003CC00024629464FF0FF3000F042F8044B20461D
:1003DC001D6038BD012038BD040000200000002045
:1003EC0008000020074A08B51368032043F01003E7
:1003FC00136000F01BF80020FFF7D0FFFFF716FF8B
:10040C00002008BD00200240034A044B11681B78F1
:10041C000B441360704700BF6C00002004000020E8
:10042C00014B1868704700BF6C000020074A00029F
:10043C00D36800F4E06023F4E0631B041B0C43F06E
:10044C00BF6343F400330343D360704700ED00E017
:10045C00174B30B5DC68C4F30224C4F10703251D27
:10046C00042B28BF0423062D4FF0010598BF002450
:10047C0005FA03F303F1FF3388BF033C1940A14095
:10048C0005FA04F4013C2240002842EA01024FEA3A
:10049C000212A9BF00F16040064BD2B200F56140D8
:1004AC00BBBF00F00F00D2B280F800231A5430BD4D
:1004BC0000ED00E014ED00E0002808DB0123420908
:1004CC0000F01F0003FA00F0014B43F822007047C4
:1004DC0000E100E00138B0F1807F0AD2F021064B38
:1004EC00064A586082F823100020072298601A6090
:1004FC0070470120704700BF10E000E000ED00E005
:10050C0090F8213010B5022B03D004238363012013
:10051C0010BD03681A6822F00E021A601A6822F0E5
:10052C0001021A60184A93421FD0143293421ED013
:10053C00143293421DD0143293421DD01432934284
:10054C001DD0143293420CBF4FF480134FF08073C4
:10055C000E4A00245360012380F82130436B80F84D
:10056C0020407BB19847204610BD0123F0E71023B3
:10057C00EEE74FF48073EBE74FF48053E8E74FF46A
:10058C008033E5E7184610BD080002400000024029
:10059C002DE9F74F00242646664BDFF8A8E1DFF87B
:1005AC00A8C10A6832FA06F502D103B0BDE8F08F93
:1005BC004FF0010808FA06F802EA080290457FD1CC
:1005CC004D68122D00F0AA8000F28380022D00F0FD
:1005DC00A28077D8002D00F08980012D00F0998041
:1005EC004FF00F09FF2A93BF824606F18045083D64
:1005FC00D0F800B092BFB500D0F804B0AD0009FA45
:10060C0005F82BEA080804FA05F588BF00F1040A7E
:10061C0048EA0505CAF80050D1F804A01AF0805F2A
:10062C004ED0454D444FAD6926F0030845F0010509
:10063C00BD61BD6908F1804805F00105019508F51B
:10064C00803806F0030B019D4FEA8B0BD8F808504D
:10065C0009FA0BF925EA0909384DA84263D005F5CA
:10066C008065A84261D005F58065A8425FD005F58C
:10067C008065A8420CBF0325042505FA0BF545EA55
:10068C000905C8F808501D681AF4803F14BF1543BB
:10069C0095431D605D681AF4003F14BF15439543E4
:1006AC005D609D681AF4801F14BF154395439D60CF
:1006BC00DD681AF4001F14BF2A4325EA0202DA602F
:1006CC0001366EE7032D22D0112D89D1CC6804346C
:1006DC0086E71B4FBD4209D012D8DFF870904D450C
:1006EC0004D009F580394D457FF47AAF8C68C4B1DC
:1006FC00012C0CBFC0F81080C0F8148008246FE7E0
:10070C007545F3D06545F1D0DFF84490EBE7002454
:10071C0066E7CC6864E7CC68083461E7CC680C34D5
:10072C005EE704245CE70025A7E70125A5E7022581
:10073C00A3E700BF00040140001002400008014084
:10074C0000002110000031100000321000001110C8
:10075C00000022100AB1016170470904FBE7C3686D
:10076C000B4214BF41610161704700002DE9F34158
:10077C00054608B901203CE00368DB0710D42B6860
:10078C009F075DD42B68190700F194802B685A07DA
:10079C0000F1BE80E869002840F02C81002028E0A0
:1007AC008F4C636803F00C03042B07D0636803F0D1
:1007BC000C03082B09D16368DE0306D523689C0360
:1007CC00DDD56B68002BDAD1D4E76B68B3F5803FCD
:1007DC0012D1236843F480332360FFF721FE0646D1
:1007EC0023689803CBD4FFF71BFE801B6428F7D932
:1007FC00032002B0BDE8F0819BB9236823F4803359
:10080C002360236823F480232360FFF709FE064648
:10081C0023689903B3D5FFF703FE801B6428F7D92F
:10082C00E6E7B3F5A02F236803D143F480232360BC
:10083C00CFE723F480332360236823F48023CBE7B2
:10084C00674C636813F00C0F07D0636803F00C035C
:10085C00082B10D16368DA030DD423689B0702D5EB
:10086C002B69012B86D123686A6923F0F80343EACC
:10087C00C203236086E72A695A4B6AB101221A60C7
:10088C00FFF7CEFD064623689F07ECD4FFF7C8FDA3
:10089C00801B0228F7D9ABE71A60FFF7C1FD0646AB
:1008AC00236898077FF56EAFFFF7BAFD801B02280F
:1008BC00F6D99DE7AA694A4C4B4BDAB101221A6072
:1008CC00FFF7AEFD0646636A9B070DD54FF4FA524F
:1008DC00464B1B68B3FBF2F3019300BF019B5A1EFE
:1008EC000192002BF9D151E7FFF79AFD801B0228EA
:1008FC00E9D97DE71A60FFF793FD0646636A9F0707
:10090C007FF544AFFFF78CFD801B0228F6D96FE70B
:10091C00334CE369D80024D40127E36943F08053B6
:10092C00E361E36903F080530093009B304E33681E
:10093C00D90518D5EB68012B26D1236A43F00103A6
:10094C002362FFF76DFD41F288368046236A9B07D0
:10095C003FD5002F3FF41EAFE36923F08053E361D2
:10096C0018E70027E2E7336843F480733360FFF73E
:10097C0057FD80463368DA05DCD4FFF751FDA0EB58
:10098C0008006428F6D933E7ABB9236A41F28838FA
:10099C0023F001032362236A23F004032362FFF78D
:1009AC003FFD0646236A9807D3D5FFF739FD801B18
:1009BC004045F7D91CE7052B236A03D143F0040308
:1009CC002362BAE723F001032362236A23F00403B2
:1009DC00B6E7FFF725FDA0EB0800B042B6D907E754
:1009EC0000100240000042428004424200000020FD
:1009FC00007000402A4B5A681C4602F00C02082A70
:100A0C003DD00023274E022833602BD1FFF708FD81
:100A1C000746236899011FD42B6AB3F5803F05D193
:100A2C006268A96822F400320A436260696A6268EB
:100A3C000B4322F474121343636001233360FFF7FA
:100A4C00EFFC054623689A013FF5A8AEFFF7E8FCDA
:100A5C00401B0228F6D9CBE6FFF7E2FCC01B0228AC
:100A6C00D7D9C5E6FFF7DCFC054623689B017FF56B
:100A7C0095AEFFF7D5FC401B0228F6D9B8E6012845
:100A8C003FF4B7AE58682B6A00F480329A427FF478
:100A9C0071AE6B6A00F47010C01A18BF0120A8E682
:100AAC00001002406000424230B5194B87B002ACD6
:100ABC0003F11005224618685968083303C2AB428B
:100ACC001446F7D101238DF80430022311498DF817
:100ADC0005304B6803F00C02082A17D1C3F383428C
:100AEC0006A80244DB0312F8102C0CD54B680A48FC
:100AFC00C3F34043504306AA134413F8143CB0FB11
:100B0C00F3F007B030BD05485043FAE70248F8E768
:100B1C00241000080010024000127A0000093D0069
:100B2C002DE9F0410D46044610B90120BDE8F081D5
:100B3C00454A136803F007038B4229D321688E07BB
:100B4C0031D4CA0744D4404A136803F007039D42CA
:100B5C0067D322683D4D12F0040F6ED1130706D5F2
:100B6C006B68226923F4605343EAC2036B60FFF79E
:100B7C009BFF6B68364AC3F30313D35CD840354BE9
:100B8C001860354B1868FFF709FC0020BDE8F081B0
:100B9C00136823F007030B431360136803F0070378
:100BAC009942C2D1CAE7294B11F0040F1EBF5A68F3
:100BBC0042F4E0625A60080742BF5A6842F460523D
:100BCC005A605A68A06822F0F00202435A60B8E7F3
:100BDC0062681E4E012A33681BD113F4003FA4D067
:100BEC00736841F2883823F0030313437360FFF7F3
:100BFC0017FC07467368626803F00C03B3EB820FB3
:100C0C00A1D0FFF70DFCC01B4045F3D90320BDE874
:100C1C00F081022A02D113F0007FE0E713F0020FFB
:100C2C00DDE7136823F007032B431360136803F00D
:100C3C0007039D427FF479AF8BE76B68E16823F47F
:100C4C00E0630B436B6089E7002002400010024018
:100C5C00341000080000002008000020044B054A56
:100C6C005B68C3F30223D35C034A1068D840704717
:100C7C00001002404410000800000020044B054AFC
:100C8C005B68C3F3C223D35C034A1068D840704737
:100C9C000010024044100008000000200368DA68CD
:100CAC0022F49072DA605A6922F001025A61202310
:100CBC0080F83A307047000038B505460368C168C3
:100CCC001A69192422F440520A431A618268006995
:100CDC00D9680243686921F4B05121F00C01024338
:100CEC000A43DA605A69A96922F440720A435A61CC
:100CFC000D4A934214D1FFF7C1FF60436C68642224
:100D0C00A400B0FBF4F0B0FBF2F402FB14031B01E3
:100D1C003233B3FBF2F3296803EB04138B6038BD59
:100D2C00FFF79CFFE9E700BF0038014010B504460F
:100D3C0040B390F8393003F0FF021BB980F838202B
:100D4C00FFF7E8FA2423226884F83930D368204668
:100D5C0023F40053D360FFF7AFFF236800201A6918
:100D6C0022F490421A615A6922F02A025A61DA6816
:100D7C0042F40052DA602023E06384F8393084F8BE
:100D8C003A3010BD012010BD7047704790F83A30D2
:100D9C0010B5222B36D183680169B3F5805F0268E8
:100DAC00836A23D15268E9B9C2F3080223F8022BF3
:100DBC008362C48D013CA4B2C4858CB90368DA6823
:100DCC0022F02002DA60DA6822F48072DA605A6962
:100DDC0022F001025A61202380F83A30FFF7D5FF48
:100DEC00002010BDD2B223F8012BE1E721B9591C28
:100DFC00526881621A70DCE75268591C816202F0F9
:100E0C007F02F7E7022010BD70470000036870B541
:100E1C001A6804461607D9685D6907D196065AD533
:100E2C008D0658D5BDE87040FFF7B0BF15F0010531
:100E3C0002D111F4907F4ED0D30705D5CE0542BF19
:100E4C00E36B43F00103E363500704D51DB1E36B7F
:100E5C0043F00203E363930704D51DB1E36B43F046
:100E6C000403E363160704D51DB1E36B43F00803D9
:100E7C00E363E36B002B66D0950604D5880602D598
:100E8C002046FFF783FF236820465D69E26B11075C
:100E9C0002D415F040051AD0FFF700FF23685A69F9
:100EAC00520610D55A69606B22F040025A6150B15B
:100EBC00254B4363FFF724FB002844D0606BBDE84F
:100ECC007040436B18472046FFF79EFF70BDFFF73D
:100EDC009BFFE56370BD160627D50D0625D594F846
:100EEC003920212A2FD1A268B2F5805F226A17D14E
:100EFC001188C1F308015960216979B90232226263
:100F0C00E28C013A92B2E284EAB9DA6822F0800209
:100F1C00DA60DA6842F04002DA6070BD0132EEE766
:100F2C00511C216212785A60EAE750060BD54A062A
:100F3C0009D5DA68204622F04002DA60202384F8D2
:100F4C003930FFF721FF70BD590F000808B5002399
:100F5C00406AC385C384FFF757FF08BD002103E037
:100F6C000B4B5B58435004310A480B4B42189A42C6
:100F7C00F6D30A4A02E0002342F8043B084B9A429B
:100F8C00F9D3FFF785F900F00FF8FFF72FF9704749
:100F9C0054100008000000200C0000200C00002061
:100FAC0070000020FEE7000070B500250C4E0D4CC3
:100FBC00A41BA410A54209D100F022F800250A4E6A
:100FCC000A4CA41BA410A54205D170BD56F82530BF
:100FDC0098470135EEE756F8253098470135F2E78A
:100FEC004C1000084C1000084C1000085010000861
:100FFC0003460244934200D1704703F8011BF9E702
:10100C00F8B500BFF8BC08BC9E467047F8B500BFE9
:08101C00F8BC08BC9E467047B9
:1010240002030405060708090A0B0C0D0E0F101025
:101034000000000000000000010203040607080984
:0810440000000000010203049A
:04104C003101000866
:041050000D01000886
:0C1054000024F400010000001000000067
:0400000508000F6977
:00000001FF
